{
  "_format": "hh3-artifact-1",
  "contractName": "GapMarket",
  "sourceName": "contracts/GapMarket.sol",
  "abi": [
    {
      "inputs": [],
      "stateMutability": "nonpayable",
      "type": "constructor"
    },
    {
      "anonymous": false,
      "inputs": [
        {
          "indexed": true,
          "internalType": "uint256",
          "name": "id",
          "type": "uint256"
        },
        {
          "indexed": true,
          "internalType": "address",
          "name": "user",
          "type": "address"
        },
        {
          "indexed": false,
          "internalType": "bool",
          "name": "up",
          "type": "bool"
        },
        {
          "indexed": false,
          "internalType": "uint256",
          "name": "amount",
          "type": "uint256"
        }
      ],
      "name": "BetPlaced",
      "type": "event"
    },
    {
      "anonymous": false,
      "inputs": [
        {
          "indexed": true,
          "internalType": "uint256",
          "name": "id",
          "type": "uint256"
        },
        {
          "indexed": true,
          "internalType": "address",
          "name": "user",
          "type": "address"
        },
        {
          "indexed": false,
          "internalType": "uint256",
          "name": "amount",
          "type": "uint256"
        }
      ],
      "name": "Claimed",
      "type": "event"
    },
    {
      "anonymous": false,
      "inputs": [
        {
          "indexed": true,
          "internalType": "uint256",
          "name": "id",
          "type": "uint256"
        },
        {
          "indexed": true,
          "internalType": "bytes32",
          "name": "ticker",
          "type": "bytes32"
        },
        {
          "indexed": false,
          "internalType": "address",
          "name": "feed",
          "type": "address"
        },
        {
          "indexed": false,
          "internalType": "uint64",
          "name": "locksAt",
          "type": "uint64"
        },
        {
          "indexed": false,
          "internalType": "uint64",
          "name": "resolvesAt",
          "type": "uint64"
        }
      ],
      "name": "MarketCreated",
      "type": "event"
    },
    {
      "anonymous": false,
      "inputs": [
        {
          "indexed": true,
          "internalType": "uint256",
          "name": "id",
          "type": "uint256"
        },
        {
          "indexed": false,
          "internalType": "int256",
          "name": "startPrice",
          "type": "int256"
        }
      ],
      "name": "MarketLocked",
      "type": "event"
    },
    {
      "anonymous": false,
      "inputs": [
        {
          "indexed": true,
          "internalType": "uint256",
          "name": "id",
          "type": "uint256"
        },
        {
          "indexed": false,
          "internalType": "enum GapMarket.Outcome",
          "name": "outcome",
          "type": "uint8"
        },
        {
          "indexed": false,
          "internalType": "int256",
          "name": "startPrice",
          "type": "int256"
        },
        {
          "indexed": false,
          "internalType": "int256",
          "name": "endPrice",
          "type": "int256"
        }
      ],
      "name": "MarketResolved",
      "type": "event"
    },
    {
      "inputs": [],
      "name": "MAX_PRICE_STALENESS",
      "outputs": [
        {
          "internalType": "uint256",
          "name": "",
          "type": "uint256"
        }
      ],
      "stateMutability": "view",
      "type": "function"
    },
    {
      "inputs": [
        {
          "internalType": "uint256",
          "name": "id",
          "type": "uint256"
        }
      ],
      "name": "claim",
      "outputs": [],
      "stateMutability": "nonpayable",
      "type": "function"
    },
    {
      "inputs": [
        {
          "internalType": "uint256",
          "name": "id",
          "type": "uint256"
        },
        {
          "internalType": "address",
          "name": "user",
          "type": "address"
        }
      ],
      "name": "claimableOf",
      "outputs": [
        {
          "internalType": "uint256",
          "name": "",
          "type": "uint256"
        }
      ],
      "stateMutability": "view",
      "type": "function"
    },
    {
      "inputs": [
        {
          "internalType": "uint256",
          "name": "",
          "type": "uint256"
        },
        {
          "internalType": "address",
          "name": "",
          "type": "address"
        }
      ],
      "name": "claimed",
      "outputs": [
        {
          "internalType": "bool",
          "name": "",
          "type": "bool"
        }
      ],
      "stateMutability": "view",
      "type": "function"
    },
    {
      "inputs": [
        {
          "internalType": "bytes32",
          "name": "ticker",
          "type": "bytes32"
        },
        {
          "internalType": "address",
          "name": "feed",
          "type": "address"
        },
        {
          "internalType": "uint64",
          "name": "locksAt",
          "type": "uint64"
        },
        {
          "internalType": "uint64",
          "name": "resolvesAt",
          "type": "uint64"
        }
      ],
      "name": "createMarket",
      "outputs": [
        {
          "internalType": "uint256",
          "name": "id",
          "type": "uint256"
        }
      ],
      "stateMutability": "nonpayable",
      "type": "function"
    },
    {
      "inputs": [
        {
          "internalType": "uint256",
          "name": "",
          "type": "uint256"
        },
        {
          "internalType": "address",
          "name": "",
          "type": "address"
        }
      ],
      "name": "downBets",
      "outputs": [
        {
          "internalType": "uint256",
          "name": "",
          "type": "uint256"
        }
      ],
      "stateMutability": "view",
      "type": "function"
    },
    {
      "inputs": [
        {
          "internalType": "uint256",
          "name": "id",
          "type": "uint256"
        }
      ],
      "name": "lockMarket",
      "outputs": [],
      "stateMutability": "nonpayable",
      "type": "function"
    },
    {
      "inputs": [],
      "name": "marketCount",
      "outputs": [
        {
          "internalType": "uint256",
          "name": "",
          "type": "uint256"
        }
      ],
      "stateMutability": "view",
      "type": "function"
    },
    {
      "inputs": [
        {
          "internalType": "uint256",
          "name": "",
          "type": "uint256"
        }
      ],
      "name": "markets",
      "outputs": [
        {
          "internalType": "bytes32",
          "name": "ticker",
          "type": "bytes32"
        },
        {
          "internalType": "address",
          "name": "feed",
          "type": "address"
        },
        {
          "internalType": "uint64",
          "name": "locksAt",
          "type": "uint64"
        },
        {
          "internalType": "uint64",
          "name": "resolvesAt",
          "type": "uint64"
        },
        {
          "internalType": "int256",
          "name": "startPrice",
          "type": "int256"
        },
        {
          "internalType": "int256",
          "name": "endPrice",
          "type": "int256"
        },
        {
          "internalType": "uint256",
          "name": "upPool",
          "type": "uint256"
        },
        {
          "internalType": "uint256",
          "name": "downPool",
          "type": "uint256"
        },
        {
          "internalType": "enum GapMarket.State",
          "name": "state",
          "type": "uint8"
        },
        {
          "internalType": "enum GapMarket.Outcome",
          "name": "outcome",
          "type": "uint8"
        }
      ],
      "stateMutability": "view",
      "type": "function"
    },
    {
      "inputs": [],
      "name": "owner",
      "outputs": [
        {
          "internalType": "address",
          "name": "",
          "type": "address"
        }
      ],
      "stateMutability": "view",
      "type": "function"
    },
    {
      "inputs": [
        {
          "internalType": "uint256",
          "name": "id",
          "type": "uint256"
        },
        {
          "internalType": "bool",
          "name": "up",
          "type": "bool"
        }
      ],
      "name": "placeBet",
      "outputs": [],
      "stateMutability": "payable",
      "type": "function"
    },
    {
      "inputs": [
        {
          "internalType": "uint256",
          "name": "id",
          "type": "uint256"
        }
      ],
      "name": "resolveMarket",
      "outputs": [],
      "stateMutability": "nonpayable",
      "type": "function"
    },
    {
      "inputs": [
        {
          "internalType": "address",
          "name": "newOwner",
          "type": "address"
        }
      ],
      "name": "transferOwnership",
      "outputs": [],
      "stateMutability": "nonpayable",
      "type": "function"
    },
    {
      "inputs": [
        {
          "internalType": "uint256",
          "name": "",
          "type": "uint256"
        },
        {
          "internalType": "address",
          "name": "",
          "type": "address"
        }
      ],
      "name": "upBets",
      "outputs": [
        {
          "internalType": "uint256",
          "name": "",
          "type": "uint256"
        }
      ],
      "stateMutability": "view",
      "type": "function"
    }
  ],
  "bytecode": "0x608060405260016006553480156013575f5ffd5b505f80546001600160a01b03191633179055611386806100325f395ff3fe6080604052600436106100d9575f3560e01c8063b7bb7c901161007c578063d1c8e5f811610057578063d1c8e5f814610304578063d6913b3214610323578063ec97908214610338578063f2fde38b1461034d575f5ffd5b8063b7bb7c9014610279578063c9d1e6ee146102af578063cbe91b80146102ce575f5ffd5b80638da5cb5b116100b75780638da5cb5b1461016b5780639e71d4d0146101a15780639ed9c74d146101ce578063b1283e77146101e1575f5ffd5b8063120aa877146100dd578063379607f51461012b5780636399d03d1461014c575b5f5ffd5b3480156100e8575f5ffd5b506101166100f73660046110a9565b600560209081525f928352604080842090915290825290205460ff1681565b60405190151581526020015b60405180910390f35b348015610136575f5ffd5b5061014a6101453660046110d3565b61036c565b005b348015610157575f5ffd5b5061014a6101663660046110d3565b6105a6565b348015610176575f5ffd5b505f54610189906001600160a01b031681565b6040516001600160a01b039091168152602001610122565b3480156101ac575f5ffd5b506101c06101bb3660046110a9565b610743565b604051908152602001610122565b61014a6101dc3660046110ea565b6108fc565b3480156101ec575f5ffd5b506102636101fb3660046110d3565b600260208190525f91825260409091208054600182015492820154600383015460048401546005850154600686015460079096015494966001600160a01b03811696600160a01b9091046001600160401b039081169695169460ff808216916101009004168a565b6040516101229a99989796959493929190611144565b348015610284575f5ffd5b506101c06102933660046110a9565b600460209081525f928352604080842090915290825290205481565b3480156102ba575f5ffd5b5061014a6102c93660046110d3565b610ac0565b3480156102d9575f5ffd5b506101c06102e83660046110a9565b600360209081525f928352604080842090915290825290205481565b34801561030f575f5ffd5b506101c061031e3660046111d8565b610bdc565b34801561032e575f5ffd5b506101c061070881565b348015610343575f5ffd5b506101c060015481565b348015610358575f5ffd5b5061014a610367366004611222565b610eeb565b6006546001146103af5760405162461bcd60e51b81526020600482015260096024820152681c99595b9d1c985b9d60ba1b60448201526064015b60405180910390fd5b600260068190555f8281526020829052604090206007015460ff16818111156103da576103da61111c565b146104165760405162461bcd60e51b815260206004820152600c60248201526b1b9bdd081c995cdbdb1d995960a21b60448201526064016103a6565b5f81815260056020908152604080832033845290915290205460ff16156104715760405162461bcd60e51b815260206004820152600f60248201526e185b1c9958591e4818db185a5b5959608a1b60448201526064016103a6565b5f61047c8233610743565b90505f81116104c05760405162461bcd60e51b815260206004820152601060248201526f6e6f7468696e6720746f20636c61696d60801b60448201526064016103a6565b5f828152600560209081526040808320338085529252808320805460ff191660011790555183908381818185875af1925050503d805f811461051d576040519150601f19603f3d011682016040523d82523d5f602084013e610522565b606091505b50509050806105655760405162461bcd60e51b815260206004820152600f60248201526e1d1c985b9cd9995c8819985a5b1959608a1b60448201526064016103a6565b604051828152339084907f4ec90e965519d92681267467f775ada5bd214aa92c0dc93d90a5e880ce9ed0269060200160405180910390a35050600160065550565b5f8181526002602052604090206001600782015460ff1660028111156105ce576105ce61111c565b146106085760405162461bcd60e51b815260206004820152600a6024820152691b9bdd081b1bd8dad95960b21b60448201526064016103a6565b60028101546001600160401b031642101561065c5760405162461bcd60e51b8152602060048201526014602482015273746f6f206561726c7920746f207265736f6c766560601b60448201526064016103a6565b6001810154610673906001600160a01b0316610f93565b60048201819055600382015412156106a3576007810180546001919061ff001916610100835b02179055506106dd565b8060030154816004015412156106cb576007810180546002919061ff00191661010083610699565b60078101805461ff0019166103001790555b600781018054600260ff1990911617908190556003820154600483015460405185937f93de3a21d509fb63e4b7d92f175f303c92ece481509400262180923d0a768e03936107379361010090920460ff1692909190611242565b60405180910390a25050565b5f828152600260208190526040822090600782015460ff16600281111561076c5761076c61111c565b14158061079a57505f8481526005602090815260408083206001600160a01b038716845290915290205460ff165b156107a8575f9150506108f6565b5f8481526003602090815260408083206001600160a01b0387168085529083528184205488855260048452828520918552925290912054811580156107eb575080155b156107fb575f93505050506108f6565b60036007840154610100900460ff16600381111561081b5761081b61111c565b036108345761082a8183611275565b93505050506108f6565b5f60016007850154610100900460ff1660038111156108555761085561111c565b1490505f8161086857846006015461086e565b84600501545b90505f82610880578560050154610886565b85600601545b90505f836108945784610896565b855b9050825f036108b7576108a98587611275565b9750505050505050506108f6565b805f036108cd575f9750505050505050506108f6565b826108d88383611288565b6108e2919061129f565b6108ec9082611275565b9750505050505050505b92915050565b5f82815260026020526040902060018101546001600160a01b03166109545760405162461bcd60e51b815260206004820152600e60248201526d1b9bc81cdd58da081b585c9ad95d60921b60448201526064016103a6565b6001810154600160a01b90046001600160401b031642106109a85760405162461bcd60e51b815260206004820152600e60248201526d18995d1d1a5b99c818db1bdcd95960921b60448201526064016103a6565b5f34116109e25760405162461bcd60e51b81526020600482015260086024820152676e6f207374616b6560c01b60448201526064016103a6565b8115610a35575f83815260036020908152604080832033845290915281208054349290610a10908490611275565b9250508190555034816005015f828254610a2a9190611275565b90915550610a7d9050565b5f83815260046020908152604080832033845290915281208054349290610a5d908490611275565b9250508190555034816006015f828254610a779190611275565b90915550505b604080518315158152346020820152339185917f4af71b021e799c62c158bd54636ca8da2fa26115a21a2dc6efe486ec104fd15f910160405180910390a3505050565b5f81815260026020526040812090600782015460ff166002811115610ae757610ae761111c565b14610b255760405162461bcd60e51b815260206004820152600e60248201526d185b1c9958591e481b1bd8dad95960921b60448201526064016103a6565b6001810154600160a01b90046001600160401b0316421015610b7d5760405162461bcd60e51b8152602060048201526011602482015270746f6f206561726c7920746f206c6f636b60781b60448201526064016103a6565b6001810154610b94906001600160a01b0316610f93565b6003820181905560078201805460ff1916600117905560405190815282907faf5bd3d6aec40621a5a8b4579e227f0658420c6be55285e958f692c694f5d68490602001610737565b5f80546001600160a01b03163314610c225760405162461bcd60e51b81526020600482015260096024820152683737ba1037bbb732b960b91b60448201526064016103a6565b6001600160a01b038416610c645760405162461bcd60e51b81526020600482015260096024820152681e995c9bc81999595960ba1b60448201526064016103a6565b42836001600160401b031611610cb25760405162461bcd60e51b81526020600482015260136024820152721b1bd8dadcd05d081a5b881d1a19481c185cdd606a1b60448201526064016103a6565b826001600160401b0316826001600160401b031611610d135760405162461bcd60e51b815260206004820152601960248201527f7265736f6c7665734174206265666f7265206c6f636b7341740000000000000060448201526064016103a6565b60018054905f610d22836112be565b919050559050604051806101400160405280868152602001856001600160a01b03168152602001846001600160401b03168152602001836001600160401b031681526020015f81526020015f81526020015f81526020015f81526020015f6002811115610d9157610d9161111c565b81526020015f90525f82815260026020818152604092839020845181559084015160018083018054958701516001600160a01b039093166001600160e01b031990961695909517600160a01b6001600160401b0393841602179094556060850151828401805467ffffffffffffffff1916919092161790556080840151600382015560a0840151600482015560c0840151600582015560e0840151600682015561010084015160078201805492949193909260ff191691908490811115610e5a57610e5a61111c565b021790555061012082015160078201805461ff001916610100836003811115610e8557610e8561111c565b021790555050604080516001600160a01b03871681526001600160401b038681166020830152851681830152905187925083917fed264ebe448c97180b0d3741add00253773935986e35c3375fd89e52843c0b18919081900360600190a3949350505050565b5f546001600160a01b03163314610f305760405162461bcd60e51b81526020600482015260096024820152683737ba1037bbb732b960b91b60448201526064016103a6565b6001600160a01b038116610f725760405162461bcd60e51b81526020600482015260096024820152683d32b9379030b2323960b91b60448201526064016103a6565b5f80546001600160a01b0319166001600160a01b0392909216919091179055565b5f5f5f836001600160a01b031663feaf968c6040518163ffffffff1660e01b815260040160a060405180830381865afa158015610fd2573d5f5f3e3d5ffd5b505050506040513d601f19601f82011682018060405250810190610ff691906112ef565b509350509250505f821361103e5760405162461bcd60e51b815260206004820152600f60248201526e3130b2103332b2b21030b739bbb2b960891b60448201526064016103a6565b61070861104b824261133d565b11156110875760405162461bcd60e51b815260206004820152600b60248201526a7374616c6520707269636560a81b60448201526064016103a6565b5092915050565b80356001600160a01b03811681146110a4575f5ffd5b919050565b5f5f604083850312156110ba575f5ffd5b823591506110ca6020840161108e565b90509250929050565b5f602082840312156110e3575f5ffd5b5035919050565b5f5f604083850312156110fb575f5ffd5b8235915060208301358015158114611111575f5ffd5b809150509250929050565b634e487b7160e01b5f52602160045260245ffd5b600481106111405761114061111c565b9052565b8a81526001600160a01b038a1660208201526001600160401b038981166040830152881660608201526080810187905260a0810186905260c0810185905260e0810184905261014081016003841061119e5761119e61111c565b836101008301526111b3610120830184611130565b9b9a5050505050505050505050565b80356001600160401b03811681146110a4575f5ffd5b5f5f5f5f608085870312156111eb575f5ffd5b843593506111fb6020860161108e565b9250611209604086016111c2565b9150611217606086016111c2565b905092959194509250565b5f60208284031215611232575f5ffd5b61123b8261108e565b9392505050565b606081016112508286611130565b602082019390935260400152919050565b634e487b7160e01b5f52601160045260245ffd5b808201808211156108f6576108f6611261565b80820281158282048414176108f6576108f6611261565b5f826112b957634e487b7160e01b5f52601260045260245ffd5b500490565b5f600182016112cf576112cf611261565b5060010190565b805169ffffffffffffffffffff811681146110a4575f5ffd5b5f5f5f5f5f60a08688031215611303575f5ffd5b61130c866112d6565b60208701516040880151606089015192975090955093509150611331608087016112d6565b90509295509295909350565b818103818111156108f6576108f661126156fea26469706673582212207a6f898cf4b73e2fcbaee033fe32f67da7a10ff9b5da4baa7e2859697bdffb0c64736f6c634300081c0033",
  "linkReferences": {},
  "deployedLinkReferences": {},
  "immutableReferences": {},
  "inputSourceName": "project/contracts/GapMarket.sol",
  "buildInfoId": "solc-0_8_28-382088ed63f0455aca8b189a8757bc02d3e9da1e"
}