{
  "_format": "hh3-artifact-1",
  "contractName": "MockAggregator",
  "sourceName": "contracts/MockAggregator.sol",
  "abi": [
    {
      "inputs": [
        {
          "internalType": "string",
          "name": "description_",
          "type": "string"
        },
        {
          "internalType": "int256",
          "name": "initialAnswer",
          "type": "int256"
        }
      ],
      "stateMutability": "nonpayable",
      "type": "constructor"
    },
    {
      "anonymous": false,
      "inputs": [
        {
          "indexed": true,
          "internalType": "int256",
          "name": "current",
          "type": "int256"
        },
        {
          "indexed": true,
          "internalType": "uint256",
          "name": "roundId",
          "type": "uint256"
        },
        {
          "indexed": false,
          "internalType": "uint256",
          "name": "updatedAt",
          "type": "uint256"
        }
      ],
      "name": "AnswerUpdated",
      "type": "event"
    },
    {
      "anonymous": false,
      "inputs": [
        {
          "indexed": true,
          "internalType": "address",
          "name": "previousOwner",
          "type": "address"
        },
        {
          "indexed": true,
          "internalType": "address",
          "name": "newOwner",
          "type": "address"
        }
      ],
      "name": "OwnershipTransferred",
      "type": "event"
    },
    {
      "inputs": [],
      "name": "decimals",
      "outputs": [
        {
          "internalType": "uint8",
          "name": "",
          "type": "uint8"
        }
      ],
      "stateMutability": "view",
      "type": "function"
    },
    {
      "inputs": [],
      "name": "description",
      "outputs": [
        {
          "internalType": "string",
          "name": "",
          "type": "string"
        }
      ],
      "stateMutability": "view",
      "type": "function"
    },
    {
      "inputs": [],
      "name": "latestRoundData",
      "outputs": [
        {
          "internalType": "uint80",
          "name": "roundId",
          "type": "uint80"
        },
        {
          "internalType": "int256",
          "name": "answer",
          "type": "int256"
        },
        {
          "internalType": "uint256",
          "name": "startedAt",
          "type": "uint256"
        },
        {
          "internalType": "uint256",
          "name": "updatedAt",
          "type": "uint256"
        },
        {
          "internalType": "uint80",
          "name": "answeredInRound",
          "type": "uint80"
        }
      ],
      "stateMutability": "view",
      "type": "function"
    },
    {
      "inputs": [],
      "name": "owner",
      "outputs": [
        {
          "internalType": "address",
          "name": "",
          "type": "address"
        }
      ],
      "stateMutability": "view",
      "type": "function"
    },
    {
      "inputs": [
        {
          "internalType": "int256",
          "name": "answer",
          "type": "int256"
        }
      ],
      "name": "setAnswer",
      "outputs": [],
      "stateMutability": "nonpayable",
      "type": "function"
    },
    {
      "inputs": [
        {
          "internalType": "address",
          "name": "newOwner",
          "type": "address"
        }
      ],
      "name": "transferOwnership",
      "outputs": [],
      "stateMutability": "nonpayable",
      "type": "function"
    }
  ],
  "bytecode": "0x608060405234801561000f575f5ffd5b5060405161079538038061079583398101604081905261002e916100c0565b5f811361006e5760405162461bcd60e51b815260206004820152600a6024820152693130b21030b739bbb2b960b11b604482015260640160405180910390fd5b5f80546001600160a01b03191633179055600161008b83826101f8565b506002555042600355600480546001600160501b03191660011790556102b2565b634e487b7160e01b5f52604160045260245ffd5b5f5f604083850312156100d1575f5ffd5b82516001600160401b038111156100e6575f5ffd5b8301601f810185136100f6575f5ffd5b80516001600160401b0381111561010f5761010f6100ac565b604051601f8201601f19908116603f011681016001600160401b038111828210171561013d5761013d6100ac565b604052818152828201602001871015610154575f5ffd5b8160208401602083015e5f60209282018301529401519395939450505050565b600181811c9082168061018857607f821691505b6020821081036101a657634e487b7160e01b5f52602260045260245ffd5b50919050565b601f8211156101f357805f5260205f20601f840160051c810160208510156101d15750805b601f840160051c820191505b818110156101f0575f81556001016101dd565b50505b505050565b81516001600160401b03811115610211576102116100ac565b6102258161021f8454610174565b846101ac565b6020601f821160018114610257575f83156102405750848201515b5f19600385901b1c1916600184901b1784556101f0565b5f84815260208120601f198516915b828110156102865787850151825560209485019460019092019101610266565b50848210156102a357868401515f19600387901b60f8161c191681555b50505050600190811b01905550565b6104d6806102bf5f395ff3fe608060405234801561000f575f5ffd5b5060043610610060575f3560e01c8063313ce567146100645780637284e416146100835780638da5cb5b1461009857806399213cd8146100c2578063f2fde38b146100d7578063feaf968c146100ea575b5f5ffd5b61006c600881565b60405160ff90911681526020015b60405180910390f35b61008b610124565b60405161007a91906103be565b5f546100aa906001600160a01b031681565b6040516001600160a01b03909116815260200161007a565b6100d56100d03660046103f3565b6101b0565b005b6100d56100e536600461040a565b6102de565b600454600254600354604080516001600160501b03909416808552602085019390935283018190526060830152608082015260a00161007a565b6001805461013190610437565b80601f016020809104026020016040519081016040528092919081815260200182805461015d90610437565b80156101a85780601f1061017f576101008083540402835291602001916101a8565b820191905f5260205f20905b81548152906001019060200180831161018b57829003601f168201915b505050505081565b5f546001600160a01b031633146101fa5760405162461bcd60e51b81526020600482015260096024820152683737ba1037bbb732b960b91b60448201526064015b60405180910390fd5b5f81136102365760405162461bcd60e51b815260206004820152600a6024820152693130b21030b739bbb2b960b11b60448201526064016101f1565b60028190554260035560048054600191905f9061025d9084906001600160501b031661046f565b92506101000a8154816001600160501b0302191690836001600160501b0316021790555060045f9054906101000a90046001600160501b03166001600160501b0316817f0559884fd3a460db3073b7fc896cc77986f16e378210ded43186175bf646fc5f6003546040516102d391815260200190565b60405180910390a350565b5f546001600160a01b031633146103235760405162461bcd60e51b81526020600482015260096024820152683737ba1037bbb732b960b91b60448201526064016101f1565b6001600160a01b0381166103655760405162461bcd60e51b81526020600482015260096024820152683d32b9379030b2323960b91b60448201526064016101f1565b5f80546040516001600160a01b03808516939216917f8be0079c531659141344cd1fd0a4f28419497f9722a3daafe3b4186f6b6457e091a35f80546001600160a01b0319166001600160a01b0392909216919091179055565b602081525f82518060208401528060208501604085015e5f604082850101526040601f19601f83011684010191505092915050565b5f60208284031215610403575f5ffd5b5035919050565b5f6020828403121561041a575f5ffd5b81356001600160a01b0381168114610430575f5ffd5b9392505050565b600181811c9082168061044b57607f821691505b60208210810361046957634e487b7160e01b5f52602260045260245ffd5b50919050565b6001600160501b03818116838216019081111561049a57634e487b7160e01b5f52601160045260245ffd5b9291505056fea264697066735822122019f146050d43fd92e50000895f64cfaca60aa7b03760238f077c2320d9771b2064736f6c634300081c0033",
  "linkReferences": {},
  "deployedLinkReferences": {},
  "immutableReferences": {},
  "inputSourceName": "project/contracts/MockAggregator.sol",
  "buildInfoId": "solc-0_8_28-d85d08d3d1a0ac16f2a169b76e4f16d61949768b"
}