{
  "_format": "hh3-artifact-1",
  "contractName": "PlayMarket",
  "sourceName": "contracts/PlayMarket.sol",
  "abi": [
    {
      "inputs": [],
      "stateMutability": "nonpayable",
      "type": "constructor"
    },
    {
      "anonymous": false,
      "inputs": [
        {
          "indexed": true,
          "internalType": "uint256",
          "name": "id",
          "type": "uint256"
        },
        {
          "indexed": true,
          "internalType": "address",
          "name": "user",
          "type": "address"
        },
        {
          "indexed": false,
          "internalType": "bool",
          "name": "up",
          "type": "bool"
        },
        {
          "indexed": false,
          "internalType": "uint256",
          "name": "amount",
          "type": "uint256"
        }
      ],
      "name": "BetPlaced",
      "type": "event"
    },
    {
      "anonymous": false,
      "inputs": [
        {
          "indexed": true,
          "internalType": "address",
          "name": "user",
          "type": "address"
        },
        {
          "indexed": false,
          "internalType": "uint256",
          "name": "week",
          "type": "uint256"
        },
        {
          "indexed": false,
          "internalType": "uint256",
          "name": "amount",
          "type": "uint256"
        }
      ],
      "name": "ChipsClaimed",
      "type": "event"
    },
    {
      "anonymous": false,
      "inputs": [
        {
          "indexed": true,
          "internalType": "uint256",
          "name": "id",
          "type": "uint256"
        },
        {
          "indexed": true,
          "internalType": "address",
          "name": "user",
          "type": "address"
        },
        {
          "indexed": false,
          "internalType": "uint256",
          "name": "amount",
          "type": "uint256"
        }
      ],
      "name": "Claimed",
      "type": "event"
    },
    {
      "anonymous": false,
      "inputs": [
        {
          "indexed": true,
          "internalType": "uint256",
          "name": "id",
          "type": "uint256"
        },
        {
          "indexed": true,
          "internalType": "bytes32",
          "name": "ticker",
          "type": "bytes32"
        },
        {
          "indexed": false,
          "internalType": "address",
          "name": "feed",
          "type": "address"
        },
        {
          "indexed": false,
          "internalType": "uint64",
          "name": "locksAt",
          "type": "uint64"
        },
        {
          "indexed": false,
          "internalType": "uint64",
          "name": "resolvesAt",
          "type": "uint64"
        }
      ],
      "name": "MarketCreated",
      "type": "event"
    },
    {
      "anonymous": false,
      "inputs": [
        {
          "indexed": true,
          "internalType": "uint256",
          "name": "id",
          "type": "uint256"
        },
        {
          "indexed": false,
          "internalType": "int256",
          "name": "startPrice",
          "type": "int256"
        }
      ],
      "name": "MarketLocked",
      "type": "event"
    },
    {
      "anonymous": false,
      "inputs": [
        {
          "indexed": true,
          "internalType": "uint256",
          "name": "id",
          "type": "uint256"
        },
        {
          "indexed": false,
          "internalType": "enum PlayMarket.Outcome",
          "name": "outcome",
          "type": "uint8"
        },
        {
          "indexed": false,
          "internalType": "int256",
          "name": "startPrice",
          "type": "int256"
        },
        {
          "indexed": false,
          "internalType": "int256",
          "name": "endPrice",
          "type": "int256"
        }
      ],
      "name": "MarketResolved",
      "type": "event"
    },
    {
      "inputs": [],
      "name": "MAX_PRICE_STALENESS",
      "outputs": [
        {
          "internalType": "uint256",
          "name": "",
          "type": "uint256"
        }
      ],
      "stateMutability": "view",
      "type": "function"
    },
    {
      "inputs": [],
      "name": "WEEK",
      "outputs": [
        {
          "internalType": "uint256",
          "name": "",
          "type": "uint256"
        }
      ],
      "stateMutability": "view",
      "type": "function"
    },
    {
      "inputs": [],
      "name": "WEEKLY_CHIPS",
      "outputs": [
        {
          "internalType": "uint256",
          "name": "",
          "type": "uint256"
        }
      ],
      "stateMutability": "view",
      "type": "function"
    },
    {
      "inputs": [
        {
          "internalType": "address",
          "name": "",
          "type": "address"
        }
      ],
      "name": "chipBalance",
      "outputs": [
        {
          "internalType": "uint256",
          "name": "",
          "type": "uint256"
        }
      ],
      "stateMutability": "view",
      "type": "function"
    },
    {
      "inputs": [
        {
          "internalType": "uint256",
          "name": "id",
          "type": "uint256"
        }
      ],
      "name": "claim",
      "outputs": [],
      "stateMutability": "nonpayable",
      "type": "function"
    },
    {
      "inputs": [],
      "name": "claimWeeklyChips",
      "outputs": [],
      "stateMutability": "nonpayable",
      "type": "function"
    },
    {
      "inputs": [
        {
          "internalType": "uint256",
          "name": "id",
          "type": "uint256"
        },
        {
          "internalType": "address",
          "name": "user",
          "type": "address"
        }
      ],
      "name": "claimableOf",
      "outputs": [
        {
          "internalType": "uint256",
          "name": "",
          "type": "uint256"
        }
      ],
      "stateMutability": "view",
      "type": "function"
    },
    {
      "inputs": [
        {
          "internalType": "uint256",
          "name": "",
          "type": "uint256"
        },
        {
          "internalType": "address",
          "name": "",
          "type": "address"
        }
      ],
      "name": "claimed",
      "outputs": [
        {
          "internalType": "bool",
          "name": "",
          "type": "bool"
        }
      ],
      "stateMutability": "view",
      "type": "function"
    },
    {
      "inputs": [
        {
          "internalType": "bytes32",
          "name": "ticker",
          "type": "bytes32"
        },
        {
          "internalType": "address",
          "name": "feed",
          "type": "address"
        },
        {
          "internalType": "uint64",
          "name": "locksAt",
          "type": "uint64"
        },
        {
          "internalType": "uint64",
          "name": "resolvesAt",
          "type": "uint64"
        }
      ],
      "name": "createMarket",
      "outputs": [
        {
          "internalType": "uint256",
          "name": "id",
          "type": "uint256"
        }
      ],
      "stateMutability": "nonpayable",
      "type": "function"
    },
    {
      "inputs": [],
      "name": "currentWeek",
      "outputs": [
        {
          "internalType": "uint256",
          "name": "",
          "type": "uint256"
        }
      ],
      "stateMutability": "view",
      "type": "function"
    },
    {
      "inputs": [
        {
          "internalType": "uint256",
          "name": "",
          "type": "uint256"
        },
        {
          "internalType": "address",
          "name": "",
          "type": "address"
        }
      ],
      "name": "downBets",
      "outputs": [
        {
          "internalType": "uint256",
          "name": "",
          "type": "uint256"
        }
      ],
      "stateMutability": "view",
      "type": "function"
    },
    {
      "inputs": [
        {
          "internalType": "address",
          "name": "",
          "type": "address"
        }
      ],
      "name": "lastClaimedWeek",
      "outputs": [
        {
          "internalType": "uint256",
          "name": "",
          "type": "uint256"
        }
      ],
      "stateMutability": "view",
      "type": "function"
    },
    {
      "inputs": [
        {
          "internalType": "uint256",
          "name": "id",
          "type": "uint256"
        }
      ],
      "name": "lockMarket",
      "outputs": [],
      "stateMutability": "nonpayable",
      "type": "function"
    },
    {
      "inputs": [],
      "name": "marketCount",
      "outputs": [
        {
          "internalType": "uint256",
          "name": "",
          "type": "uint256"
        }
      ],
      "stateMutability": "view",
      "type": "function"
    },
    {
      "inputs": [
        {
          "internalType": "uint256",
          "name": "",
          "type": "uint256"
        }
      ],
      "name": "markets",
      "outputs": [
        {
          "internalType": "bytes32",
          "name": "ticker",
          "type": "bytes32"
        },
        {
          "internalType": "address",
          "name": "feed",
          "type": "address"
        },
        {
          "internalType": "uint64",
          "name": "locksAt",
          "type": "uint64"
        },
        {
          "internalType": "uint64",
          "name": "resolvesAt",
          "type": "uint64"
        },
        {
          "internalType": "int256",
          "name": "startPrice",
          "type": "int256"
        },
        {
          "internalType": "int256",
          "name": "endPrice",
          "type": "int256"
        },
        {
          "internalType": "uint256",
          "name": "upPool",
          "type": "uint256"
        },
        {
          "internalType": "uint256",
          "name": "downPool",
          "type": "uint256"
        },
        {
          "internalType": "enum PlayMarket.State",
          "name": "state",
          "type": "uint8"
        },
        {
          "internalType": "enum PlayMarket.Outcome",
          "name": "outcome",
          "type": "uint8"
        }
      ],
      "stateMutability": "view",
      "type": "function"
    },
    {
      "inputs": [],
      "name": "owner",
      "outputs": [
        {
          "internalType": "address",
          "name": "",
          "type": "address"
        }
      ],
      "stateMutability": "view",
      "type": "function"
    },
    {
      "inputs": [
        {
          "internalType": "uint256",
          "name": "id",
          "type": "uint256"
        },
        {
          "internalType": "bool",
          "name": "up",
          "type": "bool"
        },
        {
          "internalType": "uint256",
          "name": "amount",
          "type": "uint256"
        }
      ],
      "name": "placeBet",
      "outputs": [],
      "stateMutability": "nonpayable",
      "type": "function"
    },
    {
      "inputs": [
        {
          "internalType": "uint256",
          "name": "id",
          "type": "uint256"
        }
      ],
      "name": "resolveMarket",
      "outputs": [],
      "stateMutability": "nonpayable",
      "type": "function"
    },
    {
      "inputs": [
        {
          "internalType": "address",
          "name": "newOwner",
          "type": "address"
        }
      ],
      "name": "transferOwnership",
      "outputs": [],
      "stateMutability": "nonpayable",
      "type": "function"
    },
    {
      "inputs": [
        {
          "internalType": "uint256",
          "name": "",
          "type": "uint256"
        },
        {
          "internalType": "address",
          "name": "",
          "type": "address"
        }
      ],
      "name": "upBets",
      "outputs": [
        {
          "internalType": "uint256",
          "name": "",
          "type": "uint256"
        }
      ],
      "stateMutability": "view",
      "type": "function"
    }
  ],
  "bytecode": "0x6080604052348015600e575f5ffd5b505f80546001600160a01b0319163317905561144d8061002d5f395ff3fe608060405234801561000f575f5ffd5b5060043610610127575f3560e01c8063b131e415116100a9578063d1c8e5f81161006e578063d1c8e5f814610343578063d6913b3214610356578063ec9790821461035f578063f2fde38b14610368578063f4359ce51461037b575f5ffd5b8063b131e415146102ae578063b5e36300146102bd578063b7bb7c90146102dc578063c9d1e6ee14610306578063cbe91b8014610319575f5ffd5b8063379607f5116100ef578063379607f5146101bf5780636399d03d146101d25780638da5cb5b146101e55780639e71d4d01461020f578063b1283e7714610222575f5ffd5b806306575c891461012b578063120aa877146101465780631a38cac6146101835780631bfca4df146101985780631e502997146101b7575b5f5ffd5b610133610385565b6040519081526020015b60405180910390f35b610173610154366004611169565b600560209081525f928352604080842090915290825290205460ff1681565b604051901515815260200161013d565b610196610191366004611193565b610398565b005b6101336101a63660046111cc565b60076020525f908152604090205481565b6101966105d9565b6101966101cd3660046111ec565b6106a3565b6101966101e03660046111ec565b61082a565b5f546101f7906001600160a01b031681565b6040516001600160a01b03909116815260200161013d565b61013361021d366004611169565b6109c7565b6102986102303660046111ec565b600260208190525f91825260409091208054600182015492820154600383015460048401546005850154600686015460079096015494966001600160a01b03811696600160a01b9091046001600160401b039081169695169460ff808216916101009004168a565b60405161013d9a9998979695949392919061122b565b61013367016345785d8a000081565b6101336102cb3660046111cc565b60066020525f908152604090205481565b6101336102ea366004611169565b600460209081525f928352604080842090915290825290205481565b6101966103143660046111ec565b610b80565b610133610327366004611169565b600360209081525f928352604080842090915290825290205481565b6101336103513660046112bf565b610c9c565b61013361070881565b61013360015481565b6101966103763660046111cc565b610fab565b61013362093a8081565b5f61039362093a804261131d565b905090565b5f83815260026020526040902060018101546001600160a01b03166103f55760405162461bcd60e51b815260206004820152600e60248201526d1b9bc81cdd58da081b585c9ad95d60921b60448201526064015b60405180910390fd5b6001810154600160a01b90046001600160401b031642106104495760405162461bcd60e51b815260206004820152600e60248201526d18995d1d1a5b99c818db1bdcd95960921b60448201526064016103ec565b5f82116104835760405162461bcd60e51b81526020600482015260086024820152676e6f207374616b6560c01b60448201526064016103ec565b335f908152600660205260409020548211156104d65760405162461bcd60e51b8152602060048201526012602482015271696e73756666696369656e7420636869707360701b60448201526064016103ec565b335f90815260066020526040812080548492906104f490849061133c565b9091555050821561054c575f8481526003602090815260408083203384529091528120805484929061052790849061134f565b9250508190555081816005015f828254610541919061134f565b909155506105949050565b5f8481526004602090815260408083203384529091528120805484929061057490849061134f565b9250508190555081816006015f82825461058e919061134f565b90915550505b60408051841515815260208101849052339186917f4af71b021e799c62c158bd54636ca8da2fa26115a21a2dc6efe486ec104fd15f910160405180910390a350505050565b5f6105e2610385565b335f908152600760205260409020549091508190036106435760405162461bcd60e51b815260206004820152601960248201527f616c726561647920636c61696d65642074686973207765656b0000000000000060448201526064016103ec565b335f818152600760209081526040808320859055600682529182902067016345785d8a0000908190558251858152918201527ff8bfe72781c0e142d6a00a9ebbc381dec3eb939d0c32d0dada6d19d7c069fe52910160405180910390a250565b5f8181526002602081905260409091206007015460ff16818111156106ca576106ca611203565b146107065760405162461bcd60e51b815260206004820152600c60248201526b1b9bdd081c995cdbdb1d995960a21b60448201526064016103ec565b5f81815260056020908152604080832033845290915290205460ff16156107615760405162461bcd60e51b815260206004820152600f60248201526e185b1c9958591e4818db185a5b5959608a1b60448201526064016103ec565b5f61076c82336109c7565b90505f81116107b05760405162461bcd60e51b815260206004820152601060248201526f6e6f7468696e6720746f20636c61696d60801b60448201526064016103ec565b5f8281526005602090815260408083203384528252808320805460ff191660011790556006909152812080548392906107ea90849061134f565b9091555050604051818152339083907f4ec90e965519d92681267467f775ada5bd214aa92c0dc93d90a5e880ce9ed0269060200160405180910390a35050565b5f8181526002602052604090206001600782015460ff16600281111561085257610852611203565b1461088c5760405162461bcd60e51b815260206004820152600a6024820152691b9bdd081b1bd8dad95960b21b60448201526064016103ec565b60028101546001600160401b03164210156108e05760405162461bcd60e51b8152602060048201526014602482015273746f6f206561726c7920746f207265736f6c766560601b60448201526064016103ec565b60018101546108f7906001600160a01b0316611053565b6004820181905560038201541215610927576007810180546001919061ff001916610100835b0217905550610961565b80600301548160040154121561094f576007810180546002919061ff0019166101008361091d565b60078101805461ff0019166103001790555b600781018054600260ff1990911617908190556003820154600483015460405185937f93de3a21d509fb63e4b7d92f175f303c92ece481509400262180923d0a768e03936109bb9361010090920460ff1692909190611362565b60405180910390a25050565b5f828152600260208190526040822090600782015460ff1660028111156109f0576109f0611203565b141580610a1e57505f8481526005602090815260408083206001600160a01b038716845290915290205460ff165b15610a2c575f915050610b7a565b5f8481526003602090815260408083206001600160a01b038716808552908352818420548885526004845282852091855292529091205481158015610a6f575080155b15610a7f575f9350505050610b7a565b60036007840154610100900460ff166003811115610a9f57610a9f611203565b03610ab857610aae818361134f565b9350505050610b7a565b5f60016007850154610100900460ff166003811115610ad957610ad9611203565b1490505f81610aec578460060154610af2565b84600501545b90505f82610b04578560050154610b0a565b85600601545b90505f83610b185784610b1a565b855b9050825f03610b3b57610b2d858761134f565b975050505050505050610b7a565b805f03610b51575f975050505050505050610b7a565b82610b5c8383611381565b610b66919061131d565b610b70908261134f565b9750505050505050505b92915050565b5f81815260026020526040812090600782015460ff166002811115610ba757610ba7611203565b14610be55760405162461bcd60e51b815260206004820152600e60248201526d185b1c9958591e481b1bd8dad95960921b60448201526064016103ec565b6001810154600160a01b90046001600160401b0316421015610c3d5760405162461bcd60e51b8152602060048201526011602482015270746f6f206561726c7920746f206c6f636b60781b60448201526064016103ec565b6001810154610c54906001600160a01b0316611053565b6003820181905560078201805460ff1916600117905560405190815282907faf5bd3d6aec40621a5a8b4579e227f0658420c6be55285e958f692c694f5d684906020016109bb565b5f80546001600160a01b03163314610ce25760405162461bcd60e51b81526020600482015260096024820152683737ba1037bbb732b960b91b60448201526064016103ec565b6001600160a01b038416610d245760405162461bcd60e51b81526020600482015260096024820152681e995c9bc81999595960ba1b60448201526064016103ec565b42836001600160401b031611610d725760405162461bcd60e51b81526020600482015260136024820152721b1bd8dadcd05d081a5b881d1a19481c185cdd606a1b60448201526064016103ec565b826001600160401b0316826001600160401b031611610dd35760405162461bcd60e51b815260206004820152601960248201527f7265736f6c7665734174206265666f7265206c6f636b7341740000000000000060448201526064016103ec565b60018054905f610de283611398565b919050559050604051806101400160405280868152602001856001600160a01b03168152602001846001600160401b03168152602001836001600160401b031681526020015f81526020015f81526020015f81526020015f81526020015f6002811115610e5157610e51611203565b81526020015f90525f82815260026020818152604092839020845181559084015160018083018054958701516001600160a01b039093166001600160e01b031990961695909517600160a01b6001600160401b0393841602179094556060850151828401805467ffffffffffffffff1916919092161790556080840151600382015560a0840151600482015560c0840151600582015560e0840151600682015561010084015160078201805492949193909260ff191691908490811115610f1a57610f1a611203565b021790555061012082015160078201805461ff001916610100836003811115610f4557610f45611203565b021790555050604080516001600160a01b03871681526001600160401b038681166020830152851681830152905187925083917fed264ebe448c97180b0d3741add00253773935986e35c3375fd89e52843c0b18919081900360600190a3949350505050565b5f546001600160a01b03163314610ff05760405162461bcd60e51b81526020600482015260096024820152683737ba1037bbb732b960b91b60448201526064016103ec565b6001600160a01b0381166110325760405162461bcd60e51b81526020600482015260096024820152683d32b9379030b2323960b91b60448201526064016103ec565b5f80546001600160a01b0319166001600160a01b0392909216919091179055565b5f5f5f836001600160a01b031663feaf968c6040518163ffffffff1660e01b815260040160a060405180830381865afa158015611092573d5f5f3e3d5ffd5b505050506040513d601f19601f820116820180604052508101906110b691906113c9565b509350509250505f82136110fe5760405162461bcd60e51b815260206004820152600f60248201526e3130b2103332b2b21030b739bbb2b960891b60448201526064016103ec565b61070861110b824261133c565b11156111475760405162461bcd60e51b815260206004820152600b60248201526a7374616c6520707269636560a81b60448201526064016103ec565b5092915050565b80356001600160a01b0381168114611164575f5ffd5b919050565b5f5f6040838503121561117a575f5ffd5b8235915061118a6020840161114e565b90509250929050565b5f5f5f606084860312156111a5575f5ffd5b83359250602084013580151581146111bb575f5ffd5b929592945050506040919091013590565b5f602082840312156111dc575f5ffd5b6111e58261114e565b9392505050565b5f602082840312156111fc575f5ffd5b5035919050565b634e487b7160e01b5f52602160045260245ffd5b6004811061122757611227611203565b9052565b8a81526001600160a01b038a1660208201526001600160401b038981166040830152881660608201526080810187905260a0810186905260c0810185905260e0810184905261014081016003841061128557611285611203565b8361010083015261129a610120830184611217565b9b9a5050505050505050505050565b80356001600160401b0381168114611164575f5ffd5b5f5f5f5f608085870312156112d2575f5ffd5b843593506112e26020860161114e565b92506112f0604086016112a9565b91506112fe606086016112a9565b905092959194509250565b634e487b7160e01b5f52601160045260245ffd5b5f8261133757634e487b7160e01b5f52601260045260245ffd5b500490565b81810381811115610b7a57610b7a611309565b80820180821115610b7a57610b7a611309565b606081016113708286611217565b602082019390935260400152919050565b8082028115828204841417610b7a57610b7a611309565b5f600182016113a9576113a9611309565b5060010190565b805169ffffffffffffffffffff81168114611164575f5ffd5b5f5f5f5f5f60a086880312156113dd575f5ffd5b6113e6866113b0565b6020870151604088015160608901519297509095509350915061140b608087016113b0565b9050929550929590935056fea264697066735822122029b1e05bbd2f73f3cd8e84859e235571a9ceaafece8fdc9d3cbe5eacee99c93464736f6c634300081c0033",
  "linkReferences": {},
  "deployedLinkReferences": {},
  "immutableReferences": {},
  "inputSourceName": "project/contracts/PlayMarket.sol",
  "buildInfoId": "solc-0_8_28-df8cc17e59c27af8001e853c48b11f647218c8fc"
}